:020000040800F2
:10000000E806002031020008390200083B0200081F
:100010003D0200083F020008410200080000000005
:100020000000000000000000000000004302000883
:100030004502000800000000470200082D060008E5
:100040004B0200084B0200084B0200084B0200085C
:100050004B0200084B0200084B0200084B0200084C
:100060004B0200084B0200084B0200084B0200083C
:100070004B0200084B0200084B0200084B0200082C
:100080004B0200084B0200084B0200084B0200081C
:100090004B0200084B0200084B0200083D04000818
:1000A0004B0200084B0200084B0200084B020008FC
:1000B0004B0200084B0200084B0200084B020008EC
:1000C0004B0200084B0200084B0200084B020008DC
:1000D0004B0200080D0800084B0200084B02000804
:1000E0004B0200084B0200084B0200084B020008BC
:1000F0004B0200084B0200084B0200084B020008AC
:100100004B0200084B0200084B0200084B0200089B
:100110004B0200084B020008E50600084D070008E6
:100120004B0200084B0200084B0200084B0200087B
:100130004B0200084B0200084B0200084B0200086B
:100140004B0200084B0200084B0200084B0200085B
:100150004B0200084B0200084B0200084B0200084B
:100160004B0200084B0200084B0200084B0200083B
:100170004B0200084B0200084B0200084B0200082B
:100180004B0200084B02000800F002F800F041F8B2
:100190000AA090E8000C82448344AAF10107DA45E2
:1001A00001D100F036F8AFF2090EBAE80F0013F0F3
:1001B000010F18BFFB1A43F001031847A009000004
:1001C000C0090000103A24BF78C878C1FAD8520795
:1001D00024BF30C830C144BF04680C6070470000C1
:1001E0000023002400250026103A28BF78C1FBD840
:1001F000520728BF30C148BF0B607047732900F019
:10020000B880002070471FB500F0A2FC1FBD10B5DC
:1002100010BD00F0E1F81146FFF7F5FF00F008FC13
:1002200000F0FFF803B4FFF7F2FF03BC00F024FB7B
:100230000948804709480047FEE7FEE7FEE7FEE77A
:10024000FEE7FEE7FEE7FEE7FEE7FEE704480549B6
:10025000054A064B704700007D060008890100082A
:10026000E8000020E8060020E8020020E802002064
:10027000704700000FB4044910B503AA029800F0BB
:100280007DF810BC5DF814FB0C0000202DE9F04156
:100290000E460446002020622046E168884730B3BD
:1002A000252805D0D4E901219047206A401CF2E7B7
:1002B000E168204600278847050018D0A5F14100D5
:1002C000192802D820354FF40067324629462046C7
:1002D0002760FFF793FF40B1012804D0F61D26F0F8
:1002E00007060836D8E7361DD6E72846DAE7206A3B
:1002F000BDE8F08170B50C460546012A05D0287886
:10030000800600D5EA69002302E0012305E05B1CBA
:10031000934202D2E05C0028F9D1A869E618C01A1D
:10032000A861286A184428622846AFF3008004E0D8
:10033000D5E9012114F8010B9047B442F8D32846BF
:10034000AFF3008070BD704770477047704710B5BD
:10035000436913B1AFF3008001E0FFF7CBFF012049
:1003600010BD127800F124010A7000224A700122A7
:10037000EDE711684FF0FF32E9E70000074B70B579
:100380000D467B4400F011F80446284600F020F8A2
:1003900010B14FF0FF3070BD204670BD2306000045
:1003A00001694A1C02610878704700B58FB0CDE939
:1003B00001310021059105497944CDE90310114629
:1003C0006846FFF763FF0FB000BD0000E5FFFFFFC9
:1003D000007B00F080007047754600F02BF8AE46B9
:1003E00005006946534620F00700854618B020B541
:1003F000FFF72CFFBDE820404FF000064FF000074C
:100400004FF000084FF0000B21F00701AC46ACE8BC
:10041000C009ACE8C009ACE8C009ACE8C0098D4629
:10042000704710B50446AFF300802046BDE8104089
:10043000FFF7F8BE004870478800002010B51B4841
:10044000006800F4807018B31848006840F48070A9
:10045000164908600F2000F09DFA1548006800F466
:100460008070B0B91348007898B11148001D006839
:1004700080F010000E49091D08600F480068401CFC
:100480000D49086000200B49087001200B490870D5
:100490000AE00748006800F4807028B10548007839
:1004A00010B901200349087010BD0000143C014040
:1004B0001008024008000020040000200000002076
:1004C00000F01F02012191404209920002F1E02256
:1004D000C2F800117047F0B503460C4603F007015F
:1004E000C1F10700042801D9042001E0C1F107008F
:1004F0000646081D072801D2002000E0C81E054658
:100500000120B040401E2040A8400127AF407F1E80
:1005100017403843F0BD000010B5002807DA0A077D
:10052000140E054A00F00F031B1FD45403E00A0702
:10053000130E024A135410BD18ED00E000E400E071
:100540000CB50020019000903448006840F48030E1
:100550003249086000BF3148006800F40030009064
:100560000198401C0190009818B90198B0F5A04F6F
:10057000F1D12A48006800F4003010B10120009049
:1005800001E0002000900098012846D12348403027
:10059000006840F0805021494031086020480068E0
:1005A00040F440401E4908601C48083000681B4960
:1005B000083108600846006840F4004008600846BA
:1005C000006840F4A05008601648091F0860081F22
:1005D000006840F08070091F086000BF0F48006885
:1005E00000F000700028F9D040F205700E49086054
:1005F0000A480830006820F0030008490831086004
:100600000846006840F00200086000BF0348083058
:10061000006800F00C000828F8D10CBD003802403A
:100620000070004019544007003C024010B5002003
:100630004FF0E02188610A480068401C08490860C2
:1006400008464068401E486008460068B0F5FA7FDA
:1006500005D104A0FFF70EFE00200149086010BD7F
:100660004C000020CFB5CDB3B5CEB4F0B6A8CAB11A
:10067000D6D0B6CFB2E2CAD40D0A000010B51548E4
:10068000006840F47000134908601348006840F0A7
:1006900001001149086000200F49083108600E4828
:1006A00000680E4908400C4908600D48091D0860A3
:1006B000081F006820F48020091F086000200649F8
:1006C0000C310860FFF73CFF4FF0006001498039B2
:1006D000086010BD88ED00E000380240FFFFF6FE24
:1006E0001030002410B51048008A00F00100D0B18D
:1006F0000D48008A20F001000B4908820B48006871
:10070000401C0A49086008464068401E4860084688
:10071000006840F6B831884205D105A0FFF7AAFD70
:1007200000200249086010BD001000407400002045
:10073000BBF9B1BEB6A8CAB1C6F736B6A8CAB1D61B
:10074000D0B6CFB2E2CAD40D0A00000010B52448DA
:10075000008800F00100002841D02148008820F0E6
:1007600001001F4908801F480068401C1D4908609F
:1007700008464068401C48600846006840F6B831AA
:10078000884205D118A0FFF775FD002015490860C3
:1007900014484068022822D11A48007801280DD157
:1007A00019480068401C1849086008460068B0F500
:1007B0007A7F11D30020134908700DE011480078AA
:1007C00050B911480068401E0F490860084600688B
:1007D00010B901200B49087000200249486010BD83
:1007E0001014004060000020BBF9B1BEB6A8CAB129
:1007F000C6F737B6A8CAB1D6D0B6CFB2E2CAD40DC2
:100800000A000000090000203404004010B513481D
:10081000008800F0200050B1104880881049496BD2
:100820000F4A50541046406B401C114648630B4819
:10083000008800F0100078B108488088002008493E
:10084000496B074A50541146486306A0FFF712FD52
:100850000120034981F8380010BD0000001001405C
:10086000100000207573617274315F627566663ABC
:100870000925730D0A00000000BF70470349486056
:1008800000BF024949680029FBD17047740000206D
:1008900070B504462348006840F010002149086004
:1008A0002148008840F080001F49088008460088E1
:1008B00020F0080008800846008820F00400088026
:1008C0000846008820F00200088042F2CF00088528
:1008D00004EB84000121C1EB40001349C8620846C3
:1008E000808A40F0010088820846008A20F00100DA
:1008F00008820846808940F0010088810846008807
:1009000040F001000880032201210520FFF7E3FDEC
:10091000054629463620FFF7FFFD3620FFF7D0FDBC
:1009200070BD0000403802400010004017480068C9
:1009300040F01000154908601548006820F00300D9
:10094000134908600846006840F001000860084646
:10095000406820F0010048600846806820F00300ED
:1009600088600846806840F001008860084680681A
:1009700040F0020088600846C06820F00300C860AC
:100980000846406900204861704700003038024046
:100990000010024001464AF2104201FB02F000E062
:1009A000401E0028FCD1704700BF054A128802F0A3
:1009B0004002002AF9D0C2B2014B9A807047000071
:1009C000001001401848006840F004001649086013
:1009D0001648006820F47F40144908600846006803
:1009E00040F4AA400860081D006820F0F000091DCE
:1009F0000860081D006820F47F40091D0860084653
:100A0000006840F47F400860081D006820F47F40C3
:100A1000091D086005481430006840F0F0000349E3
:100A2000143108607047000030380240000802406E
:100A300005200246134B19684FF6FF031940124B6D
:100A40000B4343EA02210F4B196000BFFFF76EFF13
:100A5000FFF7B8FF4FF4E13000F01AF80120FFF77C
:100A600017FF0A48406940F00100084948613220F8
:100A7000FFF704FF0548406900200449486100BFB2
:100A8000FEE700000CED00E00000FA050010024057
:100A90002B49096841F00101294A11602949096877
:100AA00021F47011274A11601146096841F42011A0
:100AB00011601146496821F400715160114689683E
:100AC00021F4402191601146C96821F47011D16070
:100AD0001146496A41F4EE621A494A6218491431D2
:100AE000096841F01001164A1432116016498989CB
:100AF00021F40041144A91811146898921F48051E1
:100B000091811146898941F00C01918111468989B1
:100B100041F0200191811146898941F010019181B4
:100B20001146098A21F4405111820849B1FBF0F1C4
:100B300011811146898941F400519181704700006B
:100B400030380240000002400010014000BD0105A5
:100B50004FF04070E1EE100A704700007C0B000877
:100B60000000002010000000C40100088C0B0008E9
:100B700010000020D8060000E0010008000000007E
:0C0B800000000000010100000000000067
:040000050800018965
:00000001FF
