:020000040800F2
:1000000018070020550200085D0200085F02000882
:100010006102000863020008650200080000000099
:10002000000000000000000000000000670200085F
:1000300069020008000000006B0200089518000823
:100040006F0200086F0200086F0200086F020008CC
:100050006F0200086F0200086F0200086F020008BC
:100060006F0200086F0200086F0200086F020008AC
:100070006F0200086F0200086F0200086F0200089C
:100080006F0200086F020008C11400086F02000828
:100090006F0200086F0200086F020008FD160008DA
:1000A0006F0200086F0200086F0200086F0200086C
:1000B0006F0200086F0200084D1900086F02000867
:1000C0006F0200086F0200086F0200086F0200084C
:1000D0006F020008051F00086F0200086F02000889
:1000E0006F0200086F0200086F0200086F0200082C
:1000F0006F0200086F0200086F0200086F0200081C
:100100006F0200086F020008BD1A00086F020008A5
:100110006F0200086F020008BD1B00081D1C0008CC
:100120006F0200086F0200086F0200086F020008EB
:100130006F0200086F0200086F0200086F020008DB
:100140006F0200086F0200086F0200086F020008CB
:100150006F0200086F0200086F0200086F020008BB
:100160006F0200086F0200086F0200086F020008AB
:100170006F0200086F0200086F0200086F0200089B
:100180006F0200086F02000800F002F800F052F859
:100190000AA090E8000C82448344AAF10107DA45E2
:1001A00001D100F047F8AFF2090EBAE80F0013F0E2
:1001B000010F18BFFB1A43F0010318474831000034
:1001C00068310000103A24BF78C878C1FAD85207C5
:1001D00024BF30C830C144BF04680C6070470000C1
:1001E0000023002400250026103A28BF78C1FBD840
:1001F000520728BF30C148BF0B607047662903F023
:100200002C80642900F07E80632900F02984732902
:1002100000F02E84002070471FB503F014F800F0A2
:100220003DFC04000020002102F014FBE0601FBD33
:1002300010B510BD00F04EFD1146FFF7EDFF02F0C6
:1002400041FA00F06CFD03B4FFF7F2FF03BC01F0CC
:10025000AEFE00000948804709480047FEE7FEE778
:10026000FEE7FEE7FEE7FEE7FEE7FEE7FEE7FEE766
:1002700004480549054A064B70470000E518000888
:100280008901000818010020180700201803002029
:1002900018030020704700000FB4044910B503AAEA
:1002A000029800F0E9FB10BC5DF814FB2000002070
:1002B00070B50C460546012A05D02878800600D581
:1002C000EA69002302E0012305E05B1C934202D2AD
:1002D000E05C0028F9D1A869E618C01AA861286A6C
:1002E000184428622846AFF3008004E0D5E90121D4
:1002F00014F8010B9047B442F8D32846AFF30080BE
:1003000070BD00002DE9F0410646002410687529F3
:10031000314616A510D0AFF30080002802DA404223
:1003200013A507E031688A0701D512A502E0490745
:1003300004D511A5012401E0AFF3008000210A22B9
:1003400006F1240709E0B0FBF2FCB0FBF2F302FB7C
:100350001C00303078541846491C0028F3D123463D
:100360002A463046BDE8F04100F008B90000000020
:100370002D0000002B000000200000002DE9F05FA0
:10038000894604464FF0000ADFF824B1FB44C0F868
:1003900020A02046E168884700287DD0252806D087
:1003A000D4E901219047206A401C2062F1E7002532
:1003B0005F462046E16888472028064607DB312E45
:1003C00005D2B81910F8200C08B10543F1E7A807C9
:1003D00001D525F00405C4F81CA00027C4F818A016
:1003E0002A2E09D0304601F0DBFD38B304EB870834
:1003F000303EC8F8186019E059F8041B204604EB99
:1004000087029161E1688847012F064618D1E069AB
:10041000002820DA25F020051DE0D8F8180000EBB0
:10042000800006EB40003038C8F818002046E1682C
:100430008847064601F0B4FD0028EED1012F0AD00E
:100440002E2E08D12046E16888477F1C0646022FE1
:1004500045F02005C4DBA069002803DA404245F0DE
:100460000105A061E80701D025F01005A6B1A6F1AD
:100470004100192802D8203645F400654A46314625
:10048000204625604D46FFF7B9FE60B1012807D030
:10049000ED1D25F0070000E007E000F1080978E70E
:1004A00005F1040975E730467AE7206ABDE8F09F58
:1004B000CE2E000010B5431C02E010F8011B71B1F4
:1004C0008107FAD14FF0013202C88C1A8C4314EA2A
:1004D000C211F9D0C01A0A0603D0C01E10BDC01A3E
:1004E00010BD0A0401D0801E10BD0902FCD0401EC0
:1004F00010BD00004FF0013C50F8042B51F8043BB4
:100500009A4221D1A2EB0C03934313EACC1317D1E7
:1005100050F8042B51F8043B9A4215D1A2EB0C037E
:10052000934313EACC130BD150F8042B51F8043B3E
:100530009A4209D1A2EB0C03934313EACC13DBD00C
:100540004FF00000704700BFD01A01BAB1FA81F134
:1005500001F0180122FA01F0CB40C1F12001DBB219
:10056000C0B2C01A2CFA01F3D11A914311EAC31197
:10057000E6D1704770477047704770472DE9F047E4
:100580000D4699469246044600F124080168880603
:1005900004D5E06921F01001216000E00120A842AB
:1005A00001DD471B00E00027A1697A1902EB090071
:1005B000081AA0612078C00602D42046AFF300805C
:1005C000002608E0D4E901211AF806009047206AC5
:1005D000401C761C20624E45F4DB2078C0060AD50C
:1005E0002046AFF3008006E0D4E901213020904797
:1005F000206A401C2062381EA7F10107F4DC07E0E6
:10060000D4E9012118F805009047206A401C2062B7
:10061000281EA5F10105F3DC2046AFF30080207809
:10062000000602D50220BDE8F0870120FBE77047F5
:100630002DE9FF4F0C461E464FF0FF378BB0D2E935
:100640000001DDF860800A908A46C1F30A5505B9B9
:100650003D46002108464FF00000BAF1000F00F4BB
:10066000400005DA00EB80004FF4400101EA500041
:100670004FEA9059B9F1010F00DDB9460A9850EAE6
:100680004A000ED044F61050A5F2FF3545432F1412
:10069000B8F1000F1ED07542291E1EDDC9F10002FF
:1006A0001CE0B8F1010F4FF0000001D0302103E051
:1006B000F24305E02154401CB042FBDB30460022EF
:1006C000002121540B99C1F80880C1E900200FB026
:1006D000BDE8F08FBD1B6D1CDEE74A4600DA6942BB
:1006E00006A800F07DFA06AB93E8070003AB83E8A9
:1006F000070050460A9900F01BFB8DE80700A0F5A3
:1007000000501F3800900398002D0ADD42F21F01AF
:100710004A460844002303A90390684600F084FD7C
:1007200009E0A0F500504A461F38002303A90390B2
:10073000684600F08EFD8DE807000004000C03D031
:100740004FF0FF30410800E01046B8F1000F03D031
:100750000022009215461EE0751E05D400F0A2F995
:10076000303262556D1EF9D5B3460122084302D0DE
:1007700000227F1C04E02078302801D100227F1E57
:10078000002A099784D01DE0112D07DA00F08AF9BC
:10079000303262556D1C50EA0102F5D1084302D097
:1007A0000098C8B10EE00021681E05E0235C625C81
:1007B00063542254401E491C8142F7DBAB46A81B00
:1007C000401E0990002004F80B000B98099AC0F80D
:1007D0000880C0E9002B7AE711264FF0000857E7A0
:1007E0002DE9F04F88460446D21D22F0070191B052
:1007F000D1E90001CDE90A0101F0BAFB02460B98EC
:10080000C00F01D02D2007E02068810701D52B20E3
:1008100002E0202101EAC000032A099001D0072A42
:1008200005DB03464146204600F09AF90BE12078AB
:10083000800601D5E06900E00620B8F1650F814629
:1008400006D0B8F1660F18D0B8F1670F70D131E05B
:100850000020B9F1110F009001DB112301E009F133
:1008600001030AAA01A90CA8FFF7E2FEDDE90C705A
:10087000002609F10105834647E001204B46009020
:100880004FF000470AAA01A90CA8FFF7D1FEDDE945
:100890000DB00C995D46002610B909F101000D1844
:1008A000B9EB050003D4C0F1FF3609F10105A5EB52
:1008B00009002BE0B9F1010F01DA4FF00109002026
:1008C000B9F1110F0090484601DD112300E0034605
:1008D0000AAA01A90CA8FFF7ABFEDDE90C704D4692
:1008E00000268346207800070AD4AB4500DA5D462F
:1008F00001A8012D04DD411911F8011C302907D090
:100900004F4502DA17F1040F04DA012082460FE0A6
:100910006D1EEEE7002F02DCED1B3E4403E0781C69
:10092000A84200DD7D1CB81B00F1010A4FF0004712
:100930002078000703D4AA4501DB4FF0FF3A0021DD
:10094000B7F1004F0DF143088DF8431024D0022079
:100950002B23002F01DA7F422D230A21021EA0F152
:10096000010000DC5FB197FBF1FC97FBF1F201FBAA
:100970001C7C17460CF1300C08F801CDEEE7A8F10D
:10098000010003702188090501D5452100E065219A
:10099000A0F1010800F8011C09980FA9A1EB0807B4
:1009A000FF1D00B10120411901EBEA70A169384433
:1009B000081A401EA0612078C00602D42046AFF37A
:1009C0000080099828B1D4E901219047206A401C91
:1009D00020622078C00622D52046AFF300801EE0BA
:1009E000002E04DBB34502DD01A8805D00E030206D
:1009F000D4E901219047206A401C2062761CAAF1AC
:100A000001005FEA000A0AD100F048F8C0680168F6
:100A1000405CD4E901219047206A401C2062281ED6
:100A2000A5F10105DCDC07E0D4E9012118F8010B90
:100A30009047206A401C2062381EA7F10107F3DCB2
:100A40002046AFF30080032011B041E610B54369A2
:100A500013B1AFF3008001E0FFF72AFC012010BDC5
:100A6000127800F124010A7000224A700122EDE799
:100A700011684FF0FF32E9E7074B70B50D467B4434
:100A800000F05BF80446284600F01CF910B14FF066
:100A9000FF3070BD204670BDBF1800000048704791
:100AA000D400002030B5B0F10A024FEA900E71F187
:100AB00000034EEA817EB0EB0E0061EB91014FEA3C
:100AC000101E4EEA017E10EB0E0041EB11114FEAB1
:100AD000102E4EEA016E10EB0E0041EB11214FEA91
:100AE000104E4EEA014E10EB0E0041EB1141401842
:100AF00041F100014FEAD00040EA41704FEAD101D4
:100B000010EB80054FEA810444EA907444EB010441
:100B10006D1944EB0404521BA3414FF0000348BF7E
:100B20000A3200D530BD401C41F1000130BD00004B
:100B300001694A1C02610878704700B58FB0CDE9A1
:100B400001310021059105497944CDE90310114691
:100B50006846FFF713FC0FB000BD0000E5FFFFFF84
:100B60002DE9F0411F46044603260168072A01F4D7
:100B7000006004DB08B116A505E016A503E008B186
:100B800015A500E015A521F010002060A069C01E89
:100B9000A0610FB1401EA0612046AFF300804FB1AD
:100BA000D4E9012138469047206A401C2062C01CCD
:100BB000206206E0206AFAE7D4E9012115F8010B6A
:100BC0009047761EF8D22046AFF30080BDE8F08152
:100BD0004E414E006E616E00494E4600696E6600E1
:100BE0002DE9F047814616468AB0354878440DC84D
:100BF0008DE80D0032487844801C03AC0DC884E8B1
:100C00000D0041F69B300844372190FBF1F290FB38
:100C1000F1F5A5F1800501FB12041B3C02D56442ED
:100C2000012000E00020DFF898A080460027FA4469
:100C3000AAF1BE0A0EE0E0070AD03246684607EB8A
:100C4000470101230AEB810100F003FB8DE8070057
:100C500064107F1C002CEED1194F7F44AE3F19E089
:100C6000E80715D007EB04100DF1180A90E80E0004
:100C70008AE80E00C068F04201D198190890324607
:100C8000012306A903A800F0E4FA03AB83E80700F8
:100C90006D10641C002DE3D14FF00103324669460C
:100CA000B8F1000F03A802D000F0BEFA01E000F096
:100CB000D0FAC9E90001C9F808200AB0BDE8F087F8
:100CC000FC260000007B00F0800070470048704761
:100CD000B40000207546FFF7F9FFAE4605006946EF
:100CE000534620F00700854618B020B5FFF7C0FA3C
:100CF000BDE820404FF000064FF000074FF000081D
:100D00004FF0000B21F00701AC46ACE8C009ACE89D
:100D1000C009ACE8C009ACE8C0098D46704710B501
:100D20000446AFF300802046BDE81040FFF78BBAC1
:100D30005FEA400C08BF91F0000F4FEA8C234FEAA6
:100D4000C12243EA51514FEA1C5018BF00F5F04050
:100D50004FEA300018BF41F000415FEA6C5C00F0E0
:100D60002980BCF1FF3F08BF40F080407047130C62
:100D700006BF12044FF0100C4FF0000C130E04BF0E
:100D800012020CF1080C130F04BF12010CF1040C39
:100D9000930F04BF92000CF1020CD30F04BF52005A
:100DA0000CF1010C11464FF00002A0F11F00A0EB66
:100DB0000C00704711F0004F08BF704731F0004140
:100DC0003FF4D5AF0B0C06BF09044FF0100C4FF0E9
:100DD000000C0B0E04BF09020CF1080C0B0F04BF32
:100DE00009010CF1040C8B0F04BF89000CF1020CFB
:100DF000CB0F04BF49000CF1010CCCF12003A0EB98
:100E00000C0022FA03F302FA0CF241EA030100F1AA
:100E10000100704720F07F4C80EA030023F07F47F9
:100E2000ACEB070303F57C5300F0004003F1FF0334
:100E30002DE980494FEA154B09B44FEA144325EADE
:100E40000B4E24EA03480FF2042606EB1327490849
:100E50003E785FEA320203FB0667C7F5000707FB2F
:100E600006F64FEA54374FEAD64606F1020607FB6C
:100E7000066CCCF1005C4FEA1C472CEA074C07FBE0
:100E800006F40CFB06F504EB15464FEA961634BF44
:100E900000204FF000404FEAD13706FB07FC4FEA35
:100EA0001C4C0CFB0BF7D21B03FB0CF761EB07018F
:100EB0000CFB0EF7B0EB074072EB17420CFB08F788
:100EC00034BFA2EB0742B2EB074261EB17414FEA96
:100ED0000C444FEA910706FB07FC4FEA1C4C0CFB45
:100EE0000BF7B0EBC74072EB573203FB0CF734BF84
:100EF000A2EBC742B2EBC74261EB57310CFB0EF7D6
:100F0000B0EBC70072EB57720CFB08F734BFA2EBD3
:100F1000C702B2EBC70261EB5771039F4FEA8161D1
:100F200041EA921104EBCC044FEAD1374FEA8262D6
:100F300006FB07FC42EA90124FEA80604FEA1C4C25
:100F40000CFB0BF7D21B03FB0CF761EB07010CFB4F
:100F50000EF7B0EB074072EB17420CFB08F734BFFB
:100F6000A2EB0742B2EB074261EB17414FEA8C5507
:100F70004FEA910704EB9C2406FB07FC4FEA1C4C4C
:100F80000CFB0BF7B0EBC74072EB573203FB0CF7CF
:100F900034BFA2EBC742B2EBC74261EB57310CFB47
:100FA0000EF7B0EBC70072EB57720CFB08F734BFBB
:100FB000A2EBC702B2EBC70261EB577115EB4C25F0
:100FC0004FEA816141EA92114FEA82624FEAD137DA
:100FD00042EA901206FB07FC44F100044FEA8060ED
:100FE0004FEA1C4C0CFB0BF7D21B03FB0CF761EB1D
:100FF00007010CFB0EF7B0EB074072EB17420CFB3E
:1010000008F734BFA2EB0742B2EB074261EB17418E
:1010100015EB1C154FEA813141EA92414FEA8232C9
:1010200042EA90424FEA80304FEA0C7644F10004E5
:1010300048EA03434EEA0B484FF0000EB2EB080CAF
:1010400071EB030724BF624639464EEB0E0E4FF09C
:10105000000B0018524149414BEB0B0BB2EB080C53
:1010600071EB03077BF1000B24BF624639464EEB60
:101070000E0E4FF0000B0018524149414BEB0B0B89
:10108000B2EB080C71EB03077BF1000B24BF624647
:1010900039464EEB0E0E51EA020718BF46F0010624
:1010A00016EB0E7655F1000254F1000103D5BDE8B0
:1010B0008901BDE80088BDE88901BDE80048B6198E
:1010C000524141EB0101A3F10103704780807F7E13
:1010D0007D7C7B7A797877767675747372717170AE
:1010E0006F6E6E6D6C6C6B6A6A6968686766666560
:1010F0006464636362616160605F5F5E5E5D5D5CEE
:101100005C5B5B5A5A59595858575756565555555E
:101110005454535352525251515050504F4F4F4EBE
:101120004E4D4D4D4C4C4C4B4B4B4A4A4A4949490C
:10113000484848474747474646464545454444444E
:10114000444343434342424242414141002B9C4677
:1011500030D477002BD01CB54FEA370703B44FF0DB
:1011600010004FF01001BAF1000F06D0BCF1000FD3
:10117000DCBF40F0080040F008014FF000000FBC59
:10118000BDE810400BF1010BBBF1010F08BF5FEA96
:10119000170722BF12F1010211F101014FF00041C6
:1011A00043F1000300F0004043EA00007047F9D328
:1011B0005708D0E746EA064613F1400F4FEA1646B5
:1011C0001FDD13F1200FDFBF16430A460021203335
:1011D0005B42BED0C3F1200746EA064602FA07F793
:1011E0004FEA164646EA0706C3F1200722FA03F241
:1011F00001FA07F721FA03F14FF0000342EA070270
:10120000A7E746EA020646EA06464FEA164646EAD7
:101210000106BCBF46EA0646360C4FF000034FF00D
:1012200000024FF0000194E72DE9804C9A46934666
:1012300070B491E8380007C831EA400C48BF34EA7E
:10124000430C03D5FFF7E6FDFFF780FFF0BCBDE8D8
:10125000008C2DE9804C9A46934670B491E8380092
:1012600007C810F0804F08BF13F0804F03D100F083
:1012700005F8FFF76BFFF0BCBDE8008C20F07F475E
:1012800080EA030023F07F4C07EB0C03A3F57C53AB
:1012900000F00040A3F1FE0392F0000F00F0B380D5
:1012A00095F0000F00F077802DE901494FEA1140D9
:1012B0004FEA144621EA004800FB06FC24EA0647F0
:1012C00008FB06F607FB08F800FB07F718EB0648D3
:1012D0004CEB164C4FEA124B18EB07484FEA1546F9
:1012E0004CEB174022EA0B4E0BFB06FC25EA0647A7
:1012F0000EFB06F607FB0EFE0BFB07F71EEB064E7A
:101300004CEB164C4FF000061EEB074E4CEB174B08
:1013100018EB0B0840F1000018EB0E0B58EB00081F
:1013200040F100008F1A4FF000013CBFC943661B1B
:1013300014BFB5EB040C00213CBFC943F61B4FEAB8
:1013400017444EEA8E0E27EA04454FEA1C4704FB79
:1013500007622CEA074C05FB07F70CFB05F604FBBC
:101360000CFC16EB074642EB174216EB0C4642EB21
:101370001C421BEB060658EB0202414146EA9E0660
:1013800001D5BDE80189B619524141EB0101A3F134
:101390000103BDE801894FEA14454FEA114724EAE9
:1013A000054621EA074C05FB07F406FB07F70CFB93
:1013B00006F105FB0CFC11EB074144EB17444FEA27
:1013C000124711EB0C4144EB1C4422EA074C05FB8D
:1013D00007F206FB07F70CFB06F605FB0CFC16EB09
:1013E000074642EB174216EB0C4642EB1C456A18C7
:1013F00054F1000148BF7047B619524141EB010159
:10140000A3F10103704795F0000F37D04FEA114266
:101410004FEA144721EA024624EA074C02FB07F18F
:1014200006FB07F70CFB06F402FB0CFC14EB07446D
:1014300041EB17414FEA154714EB0C4441EB1C41BB
:1014400025EA074C02FB07F506FB07F70CFB06F63F
:1014500002FB0CFC16EB074645EB174516EB0C465A
:1014600045EB1C42121951F1000148BF7047B619F3
:10147000524141EB0101A3F1010370474FEA1445CA
:101480004FEA114724EA054621EA074C05FB07F11C
:1014900006FB07F70CFB06F24FF0000605FB0CFC01
:1014A00012EB074241EB174112EB0C4251EB1C418E
:1014B00048BF7047921841EB0101A3F10103704747
:1014C00010B52DED0A8B6A480068C0F34000002873
:1014D00028D068480078401C6649087008460078A3
:1014E000012820D16248C06C63490880098840F611
:1014F000FF72501A01F023FC41EC1A0B9FED5F0BB9
:1015000053EC102B01F096FA41EC190B9FED5D0B9B
:1015100053EC102B01F03EFC41EC180B01F0E2FB08
:1015200055490880A0E05348007802281DD1504852
:10153000C06C51494880488801F018FC41EC1A0BF6
:101540009FED4E0B53EC102B01F074FA41EC190B8C
:101550009FED4C0B53EC102B01F01CFC41EC180BD5
:1015600001F0C0FB444948807EE0424800780328EF
:101570007AD100203F4908703D48C06C00EE100A47
:10158000B8EE400A3C4880ED010A90ED010A10EEE9
:10159000101A084601F0E6FD41EC1C0B9FED3B0BD9
:1015A00053EC102B01F0F6FB41EC1B0B9FED390BBC
:1015B00053EC102B01F0ECFC41EC1A0B9FED370BB8
:1015C00053EC102B01F036FA41EC190B9FED350B63
:1015D00053EC102B01F086F941EC180B01F050F997
:1015E0002549486008460088502804DD4FF47A7089
:1015F0002E4908600FE020480088462808DA1E4877
:101600000088282804DD4FF4FA702849086002E0B9
:1016100064202649086018484088322806DD24489E
:10162000406940F001002249486104E020484069D7
:1016300000201F494861104801881EA0FEF72CFEBB
:101640000D48418821A0FEF727FE0B4890ED010AC6
:1016500010EE101A084601F085FD41EC180B53EC12
:10166000182B21A0FEF718FEBDEC0A8B10BD000060
:10167000002001401400002018000020000000009D
:1016800000FEAF400000000000005940C3F5285C98
:101690008FC2E93F0000000000C08740000000004A
:1016A0000000044000000000000039403404004005
:1016B00000100240B9E2D5D5C7BFB6C8B0D9B7D679
:1016C000B1C8A3BA256425250D0A0000BFD5C6F808
:1016D000CEDBC8BEB3CCB6C8B0D9B7D6B1C8A3BAF2
:1016E000256425250D0A0000CEC2B6C8CAFDBEDDA0
:1016F000A3BA252E3266A1E3430D0A0010B51B489C
:10170000006800F4807018B31848006840F48070D6
:10171000164908600F2000F009FE1548006800F423
:101720008070B0B91348007898B11148001D006866
:1017300080F010000E49091D08600F480068401C29
:101740000D49086000200B49087001200B49087002
:101750000AE00748006800F4807028B10548007866
:1017600010B901200349087010BD0000143C01406D
:1017700010080240090000200400002000000020A2
:1017800010B50848006840F48070064908600A20D7
:1017900000F026FD0348006820F4807001490860CD
:1017A00010BD0000140402400CB500200190009010
:1017B0003448006840F480303249086000BF314846
:1017C000006800F4003000900198401C01900098DF
:1017D00018B90198B0F5A04FF1D12A48006800F47B
:1017E000003010B10120009001E00020009000982E
:1017F000012846D123484030006840F080502149FC
:10180000403108602048006840F440401E490860AC
:101810001C48083000681B49083108600846006809
:1018200040F4004008600846006840F4A05008609A
:101830001648091F0860081F006840F08070091FE3
:10184000086000BF0F48006800F000700028F9D061
:1018500040F205700E4908600A480830006820F020
:1018600003000849083108600846006840F002009B
:10187000086000BF03480830006800F00C0008282A
:10188000F8D10CBD003802400070004019544007E8
:10189000003C024010B500204FF0E02188610A486A
:1018A0000068401C0849086008464068401E4860BF
:1018B00008460068B0F5FA7F05D104A0FEF7ECFCFD
:1018C00000200149086010BD64000020CFB5CDB3F1
:1018D000B5CEB4F0B6A8CAB1D6D0B6CFB2E2CAD4AB
:1018E0000D0A000010B51548006840F47000134957
:1018F00008601348006840F00100114908600020AA
:101900000F49083108600E4800680E4908400C492C
:1019100008600D48091D0860081F006820F4802039
:10192000091F0860002006490C310860FFF73CFFE2
:101930004FF0006001498039086010BD88ED00E07B
:1019400000380240FFFFF6FE1030002470B52DED88
:10195000088B002400254348008800F0010050B1A6
:101960004048008820F001003E4908803E48008839
:10197000401C3D4908803B48008800F002000028D8
:101980006CD03848008820F002003649088035487D
:101990001030008800F0020080B900203249088031
:1019A000304824300068314908802E4810300088C3
:1019B00040F002002B49103108804FE029481030D8
:1019C000008800F00200002848D026482430006833
:1019D00084B225480088C0EB004024490988401A99
:1019E000051905EB0511480001F0C0F99FED200B2A
:1019F00053EC102B01F01EF89FED1F0B53EC102B36
:101A000001F018F800F03CFF08EE100A9FED1C0AE8
:101A1000B4EEC08AF1EE10FA11D81A48006820F02E
:101A200010001849086018EE100A01F09BFB41EC09
:101A3000190B53EC192B14A0FEF72EFC05E01148EE
:101A4000006840F010000F49086006481030008818
:101A500020F0020003491031088000BFBDEC088B64
:101A600070BD00001008004010000020120000208F
:101A70000000000000408F40000000000000004017
:101A80000000484214080240D3D0BAA6C6F8CCE5FC
:101A9000D0B9C2A9C7EBCDCBB3F63530636DD2D484
:101AA000CDE2A3A1B5B1C7B0BEE0C0EBCEAAA3BA48
:101AB000252E3166636D0D0A0000000070B52DED16
:101AC000048B002400253148008800F0010050B14B
:101AD0002E48008820F001002C4908802C480088FE
:101AE000401C2B4908802948008800F0020000288B
:101AF00048D02648008820F0020024490880234866
:101B00001030008800F0020080B9002020490880D1
:101B10001E48243000681F4908801C481030008887
:101B200040F002001949103108802BE017481030AE
:101B3000008800F0020028B314482430006884B202
:101B400013480088C0EB004012490988401A051963
:101B5000284601F00BF941EC190B9FED0F0B53ECEC
:101B6000102B00F067FF41EC180B53EC182B0CA066
:101B7000FEF792FB05481030008820F00200034970
:101B800010310880BDEC048B70BD0000100C0040CB
:101B90000C0000200E0000200000000000408F40DC
:101BA000B0B4BCFCB0B4CFC2B5C4CAB1BCE4A3BA33
:101BB00025302E31666D730D0A00000010B50E48F9
:101BC000008A00F00100B0B10B48008A20F001004B
:101BD0000949088209484068401E0849486008468B
:101BE000006840F6B831884205D105A0FEF754FBE5
:101BF00000200249086010BD00100040A000002035
:101C0000BBF9B1BEB6A8CAB1C6F736B6A8CAB1D636
:101C1000D0B6CFB2E2CAD40D0A0000002DE9F041DF
:101C20002DED068B8648008800F0010000287DD04D
:101C30008348008820F00100814908808148C069FC
:101C4000401C8049C8610846006840F6B8318842A7
:101C500005D17DA0FEF720FB00207A490860794875
:101C60004068022822D17F48007801280DD17E48A3
:101C70000068401C7C49086008460068B0F57A7F1F
:101C800011D30020774908700DE07648007850B9EC
:101C900075480068401E744908600846006810B91D
:101CA00001207049087000206649486065488068D6
:101CB000322815D36D48007800F0B4FC6B490878E1
:101CC000C11700EB91718910A0EB8101491C674A93
:101CD00011701046007800F0CDFC00205949886052
:101CE0005848C06803280ED100205649C860604893
:101CF000006800F4807018B100205E49087002E0AE
:101D000001205C4908704F48006940F6B8318842AC
:101D100004D100204B490861FFF732FD4948406972
:101D200064282ED100204749486100E083E000F09C
:101D300041F9054640F6FF71481B01F000F841ECFF
:101D40001A0B9FED4D0B53EC102B00F073FE41EC82
:101D5000190B9FED4B0B53EC102B01F01BF841ECD2
:101D6000180B00F0BFFF85B205EB85004FF6FF7141
:101D700001EA40063C4806603246294642A0FEF78A
:101D80008BFA30488069642835D100202D4988615C
:101D900000F024F90446204600F0E8FF41EC1A0B5D
:101DA0009FED350B53EC102B00F044FE41EC190B6A
:101DB0009FED330B53EC102B00F0ECFF41EC180BB4
:101DC00000F090FF84B2142C0EDDA4F11400C117B2
:101DD00000EB5171C1F3C707354807603A46214609
:101DE00034A0FEF759FA06E0002031490860214688
:101DF00039A0FEF751FA1348006AB0F57A7F08D18E
:101E00000020104908623D48806840F080403B490E
:101E100088603B48007801280DD10A48406A401C80
:101E2000084948620846406AB0F5FA7F03D10020AD
:101E3000486200F041FABDEC068BBDE8F08100007D
:101E40001014004078000020BBF9B1BEB6A8CAB19A
:101E5000C6F737B6A8CAB1D6D0B6CFB2E2CAD40D4B
:101E60000A0000000A000020340400400B0000209B
:101E700010080240080000200000000000FEAF40F3
:101E80000000000000005940B9E2D5D5C7BFB6C870
:101E9000B0D9B7D6B1C8A3BA2564252520204C45B2
:101EA00044C1C1B6C8D6B5A3BA25640D0A00000066
:101EB000341C0040B6BEC6F8C5A8B6C8A3BA25648F
:101EC00025252020B5E7BBFACBD9B6C8B5B5CEBB22
:101ED000A3BA25640D0A0000B6BEC6F8C5A8B6C8E8
:101EE000A3BA256425252020B5E7BBFAB4A6D3DA2A
:101EF000B9D8B1D5D7B4CCAC0D0A00000020014050
:101F00002400002010B51348008800F0200050B1D4
:101F1000104880881049496B0F4A50541046406B56
:101F2000401C114648630B48008800F0100078B14F
:101F30000848808800200849496B074A50541146D8
:101F4000486306A0FEF7A8F90120034981F838008C
:101F500010BD000000100140280000207573617260
:101F600074315F627566663A0925730D0A000000D8
:101F700003B401984100009850EAC12018BF042022
:101F80004A0D18BF40F0010040F2FF72B2EB515F02
:101F900008BF40F00200012808BF052002B07047CA
:101FA00030380A2801D2012070470020704700BF56
:101FB0007047000000200849896841F08041064AC6
:101FC000916000BF0449096801F002010029F9D0BD
:101FD0000149C96C88B270470020014000200A49BD
:101FE000096841F08041094AC2F8081100BF06495A
:101FF0000839096801F002010029F8D0024944318A
:10200000096888B2704700000821014000200140A3
:1020100010B500F0E1F910BD2DE9F04105460C4680
:1020200016462C44002700F0A7FAA02000F06AFA18
:1020300000F0A2F920B100F0CDFA0120BDE8F08156
:10204000284600F05FFA00F097F918B100F0C2FAE4
:102050000220F3E700F090FAA12000F053FA00F01C
:102060008BF918B100F0B6FA0120E7E708E000F0BC
:10207000E3F92070641C781CC7B2002000F014FA49
:10208000701EB842F3DC00F0D7F92070012000F098
:102090000BFA00F09FFA0020D0E72DE9F04104464A
:1020A0000D461646A219501EE21704EB5272D210CA
:1020B000C31700EB5373B2EBE30F02D00420BDE86B
:1020C000F081002700F058FAA02000F01BFA00F081
:1020D00053F918B100F07EFA0120F0E7204600F035
:1020E00011FA00F049F918B100F074FA0220E6E79D
:1020F0000CE0287800F006FA00F03EF918B100F084
:1021000069FA0320DBE76D1C781CC7B2B742F0DB2D
:1021100000F060FA052000F027F80020CFE72DE955
:10212000F04104460F4616461AE02046E11704EB3C
:102130005171C910A4EBC101C1F10801CDB2B54282
:1021400004DB32463946FFF7A8FF0AE02A46394643
:102150002046FFF7A2FF701BC6B22F446019C4B21D
:10216000E3E700BFBDE8F0811B49096841F01001B9
:10217000194A11601949098841F08001174A1180F4
:102180001146098841F0080111801146098821F0A3
:102190000201118042F2CF01118500EB8001012282
:1021A000C2EB41010D4AD1621146898A41F0010119
:1021B00091821146098A21F0010111821146098894
:1021C00041F00101118000BF0449098A01F00101B9
:1021D0000029F9D07047000040380240001000404C
:1021E0001949096841F01001174A11601749098817
:1021F00041F08001154A11801146098841F008011B
:1022000011801146098821F00201118029211185D0
:102210000121C1EB4001D1621146898A41F00101DF
:1022200091821146098A21F0010111821146098823
:1022300041F00101118000BF0449098A01F0010148
:102240000029F9D0704700004038024000100040DB
:102250001748006840F010001549086015480068EC
:1022600020F00300134908600846006840F00100B0
:1022700008600846406820F0010048600846806811
:1022800020F0030088600846806840F00100886004
:102290000846806840F0020088600846C06820F068
:1022A0000300C8600846406900204861704700008C
:1022B000303802400010024070B500F04FF84FF483
:1022C0007A71B0FBF1F201FB120400F047F84FF411
:1022D0007A71B0FBF1F201FB120500F03FF84FF408
:1022E0007A71B0FBF1F201FB120603480460001D95
:1022F0000560001D066070BD380C00400A4800688B
:1023000040F01000084908600846006840F02000CE
:1023100008600846006840F0400008600846006811
:1023200040F08000086070471408024001464AF2FD
:10233000104201FB02F000E0401E0028FCD1704773
:1023400000BF054A128802F04002002AF9D0C2B24A
:10235000014B9A80704700000010014000BF054902
:10236000096801F001010029F9D00249091D086836
:10237000704700000408065010B51648006820F0A9
:102380004000144908600846006840F0800008607A
:102390000846006820F0400008600520FFF720FF95
:1023A0000C48006840F040000A4908600520FFF72B
:1023B00017FF0848001F006800F0800008B10124E2
:1023C00000E000240348006820F040000149086054
:1023D000204610BD140402401548006840F0020079
:1023E000134908601348006820F4704011490860E0
:1023F0000846006840F4A0400860081D006840F0EE
:10240000C000091D0860081D006820F47040091D07
:102410000860081D006820F47040091D0860054828
:102420001430006840F0C000024914310860704761
:10243000303802400004024070B51A48006820F0AD
:102440004000184908600846006840F080000860B5
:1024500000251DE01348006820F040001149086085
:102460000520FFF7BDFE0F48006840F040000D4911
:1024700008600520FFF7B4FE6006040E0948001F3F
:10248000006800F0800008B144F00104681CC5B287
:10249000082DDFDB0348006820F040000149086098
:1024A000204670BD1404024010B50446144800686C
:1024B00020F04000124908600320FFF791FE34B17C
:1024C0000F48006840F080000D49086005E00C48A6
:1024D000006820F080000A4908600220FFF780FEB3
:1024E0000748006840F04000054908600520FFF7F4
:1024F00077FE0348006820F040000149086010BDE5
:102500001404024070B50546082429E01948006803
:1025100020F04000174908600320FFF761FE601EAD
:10252000012101FA00F0284030B11248006840F063
:1025300080001049086005E00E48006820F0800027
:102540000C4908600220FFF74BFE0A48006840F083
:102550004000084908600520FFF742FE601EC4B233
:10256000002CD3DC0348006820F0400001490860DB
:1025700070BD00001404024010B51548006820F03A
:102580004000134908600520FFF72AFE1048006844
:1025900040F080000E4908600520FFF721FE0C483E
:1025A000006840F040000A4908600520FFF718FE67
:1025B0000748006820F08000054908600520FFF703
:1025C0000FFE0348006820F040000149086010BD7C
:1025D0001404024010B51248006820F04000104971
:1025E00008600520FFF7FCFD0D48006820F0800022
:1025F0000B4908600520FFF7F3FD0948006840F02B
:102600004000074908600520FFF7EAFD044800681C
:1026100040F08000024908600520FFF7E1FD10BD91
:102620001404024000B50246FFF768FE012A05D1F6
:102630000F48006840F010000D490860022A05D1DB
:102640000B48006840F0200009490860032A05D1C2
:102650000748006840F0400005490860042A05D199
:102660000348006840F080000149086000BD000098
:102670001408024000B50246FFF740FE012A05D1CA
:102680000F48006820F010000D490860022A05D1AB
:102690000B48006820F0200009490860032A05D192
:1026A0000748006820F0400005490860042A05D169
:1026B0000348006820F080000149086000BD000068
:1026C00014080240FFF7C4FD4FF4E13000F062F857
:1026D000FFF79EFC1B48406940F001001949486122
:1026E0003220FFF741FD1748406900201549486135
:1026F00015A60E253046FDF7DDFEC4B22246314652
:102700002846FFF70CFD3046FDF7D4FEC4B2224642
:1027100010492846FFF780FC074639460EA0FDF712
:10272000BBFD2C4606E00B48025D214612A0FDF7DA
:10273000B3FD641C3046FDF7BDFE2844A042F2D82C
:1027400000BFFEE7001002403132333435363739EE
:102750000000000025000020E8BF9EE7BBADE8AF09
:10276000BBE695B0E68DAEE79A84E78AB6E680814F
:10277000EFBC9A25640D0A002564E59CB0E59D80B8
:10278000E695B0E68DAEE4B8BAEFBC9A25630D0AC3
:10279000000000002B49096841F00101294A11603D
:1027A0002949096821F47011274A11601146096806
:1027B00041F4201111601146496821F40071516003
:1027C0001146896821F4402191601146C96821F4BD
:1027D0007011D1601146496A41F4EE621A494A62A9
:1027E00018491431096841F01001164A1432116079
:1027F0001649898921F40041144A91811146898939
:1028000021F4805191811146898941F00C01918117
:102810001146898941F0200191811146898941F051
:10282000100191811146098A21F440511182084911
:10283000B1FBF0F111811146898941F40051918178
:102840007047000030380240000002400010014094
:1028500000BD010510B500290AD00878002807D06E
:1028600005487844FDF746FE002801D0002010BD41
:102870000248784410BD0000C20A0000BA0A0000F5
:1028800021F00042A2F16052B2F5801F01F0004336
:1028900028BFD2F17F6C0BD95FEA001C43EAC20269
:1028A00042EB507018BF704728BF20F001007047FE
:1028B000B2F5801FBCBF184670474FEA410C1CF5AB
:1028C000001F02D2084600F0C3BC70B500F00CFB3C
:1028D00000000089FFF7F6BF4FF00040A0F5800030
:1028E0007047000010B591EA030F48BF83F0004322
:1028F00000F15683841A71EB030C05D2121943EBD5
:102900000C03001B61EB0C01DFF824E14FEA1154CA
:10291000A4EB135C1EEA430F18BF9EEA445F73D01A
:1029200023EA0E03DCF1200E21EA045143F4801364
:1029300032D322FA0CFE10EB0E0023FA0CFE41EB10
:102940000E01CCF1200E03FA0EFE10EB0E0051F139
:102950000001B1F5801FCCF1200E32D201EB045101
:1029600012FA0EF2BDE8104058BF7047401C38BF45
:102970005FEA420218BF7047002814BF20F0010030
:1029800041F100014FEA410313F5001F38BF7047C2
:10299000A1F1C04100F0F6BA012A43EB0302ACF109
:1029A000200CDCF11F0E32BF4FF0000E23FA0CF3A7
:1029B00010EB030041EB0451B4EB115FD0D0A1EB5D
:1029C000045101F5801149085FEA300001EB045120
:1029D0000ED350F1000038BF12FA0EFE08D1BDE848
:1029E0001040C9E7401C38BF5FEA4202CAD1C3E7C2
:1029F000BDE810404FEA410313F5001F38BF704790
:102A0000A1F1C04100F0BEBA9EEA445F08D011EACD
:102A10005E0FBDE8104004BF01F000410020704788
:102A2000BDE8104070B500F05FFA00BF64FBBE3E29
:102A30000000E0FF2DE9C04130B4DFF8A0C23CEA5D
:102A4000111418BF3CEA131400F0EC8081EA03056E
:102A50001CEA111444EAD57418BF1CEA131500F0DF
:102A6000C780A4EB05044FF0004545EAC12145EAC3
:102A7000C32341EA505143EA525304F17F7499420F
:102A800004F500344FEAC0204FEAC22208BF90424A
:102A900000F09C804FEA13650FF24016765D4FEA16
:102AA000134506FB05F7C7F1807706FB07F74FEAEA
:102AB000D737A7FB03687642C8F58038A7FB06CE58
:102AC00038BFA8F1010807FB08E64FF0000EA6FB8F
:102AD000028CE6FB03CEDCF1000CCEF1004E38BFD9
:102AE000AEF1010EA6FB0C584FF000074FF00005A9
:102AF000E6FB0E87A1FB08C6A0FB07CE16EB0E0671
:102B000045F10005E1FB076515F1E04E7EBFA4F538
:102B100080345FEA46066D4116F1800745F10005F5
:102B20004FEA17274FEA066647EA0567A6F1DE4631
:102B3000B6F1805F4FEA15251FD9384624F0010C05
:102B400005EBC471BCF1FE6F01EB0C1102D8F0BCB7
:102B5000BDE8008124425CBF01F5801E9EEAC47F6F
:102B600002D4F0BCBDE80081244238D4F0BCA1F10D
:102B7000C041BDE8004100F005BA4FEAD22242EA66
:102B800043524FEAD323A7FB02864FEAD02040EA04
:102B9000415007FB03661EEA0E0F4FEAD12105FBE9
:102BA000026658BFA6EB0056B6EB00564FEA520E2F
:102BB0004EEAC37E18EB0E0E56EB530EBDD518EB46
:102BC00002085E417F1C55F10005B6E74FF4801501
:102BD0004FF000074FF000064FF00008ADE7F0BCE3
:102BE0004FF0000001F1C04101F00041BDE800815B
:102BF00011EA0C1F0CEA131500D00CE013EA0C1FAD
:102C000000F025804FF00000F0BC81EA030101F0E4
:102C10000041BDE80081F0BCBDE8004181EA03014C
:102C200000F0B0B9F0BCBDE8004170B500F05CF94F
:102C3000097EFC3E00F007B881EA03014FF0000076
:102C400001F00041704781EA030100F09BB9F0BC3C
:102C5000BDE800414FF0000021497047FFFDFBF93E
:102C6000F7F5F4F2F0EEEDEBE9E8E6E4E3E1E0DEBF
:102C7000DDDBDAD8D7D5D4D3D1D0CFCDCCCBCAC831
:102C8000C7C6C5C4C2C1C0BFBEBDBCBBBAB9B8B758
:102C9000B6B5B4B3B2B1B0AFAEADACABAAA9A8A84B
:102CA000A7A6A5A4A3A3A2A1A09F9F9E9D9C9C9B19
:102CB0009A999998979796959594939392919190C4
:102CC0008F8F8E8E8D8C8C8B8B8A89898888878755
:102CD0008685858484838382828181800000FF07CA
:102CE0000000F87F4FEA1153A3F58063D3F11E0370
:102CF000A8BFD3F1200C08DB4FF0004242EAC1220A
:102D000052EA505232FA03F0704709420BD4102BAA
:102D1000C4BF0020704703F5787CBCF1FF3F05D0AD
:102D20004FF0FF3070474FF00000704770B500F073
:102D3000DBF800BF4992248000207047F0E710F0D4
:102D4000004248BF4042B0FA80F310FA03F10AD0C3
:102D5000C3F11D0303F580634FEA415002EB0352B8
:102D600002EBD12170474FF000007047B0FA80F3BA
:102D700010FA03F10AD0C3F11D0303F580634FEA93
:102D800041504FEA035202EBD12170474FF000004F
:102D900070470000DFF848C170B51CEA111E1EBF65
:102DA0001CEA13159EEA0C0F95EA0C0F00F06F80D9
:102DB00081EA030423EA4C134EEAD47E21EA4C1143
:102DC00041F4801143F48013AE44A1FB024CA0FBFC
:102DD0000365AEF17F7E361955EB0C05A1FB034C64
:102DE0004CF10003A0FB021C16EB0C06654153F1ED
:102DF0000003094218BF46F0010613F4007F0BD10F
:102E00004FEA03314FEA0530340341EA155140EAF5
:102E100016506FF003020AE04FEAC3214FEAC520C3
:102E2000F40241EA555140EA56506FF0020202EBBB
:102E30002E4201EB025585EACE710AD05FEA440CBE
:102E400018BF24F0004450F1000041F1000120EAD5
:102E5000D47040F2FE7C624500D270BDA84214BF1F
:102E60004FF080444FF04044002E08BF0024BEF1D4
:102E7000806FA8BFA1F1C041BDE8704080F28280A0
:102E80004FF0000001F1C04101F0004170479EEA9F
:102E90000C0F0CEA131518BF95EA0C0F06D04FF073
:102EA000000081EA030E0EF0004170BD00F01CF836
:102EB0008900013E00F007B800F009B84FEA430C62
:102EC0005FEA5C5C08D081EA030100F05BB84FEA7E
:102ED000410C5FEA5C5CF6D14FF00000014970479D
:102EE0000000FF070000F87F0EF1020E2EF0030E27
:102EF0005EF8046B364205D4012A43EB030515F551
:102F0000001F12D8012841EB010C1CF5001F0CD842
:102F10000ED14FEAD17C15F5001F0CEB4C0C0CF1D7
:102F2000020C08BF4CEBD37C04E04FF0080C01E02E
:102F30004FEAD37C0CEB4C0526FA05F606F00706A3
:102F4000B6F1040C06D20EEB860CBDE870404CF0D6
:102F5000010C6047DFE80CF0090B02024FF0004162
:102F60004FF00000A1F5002170BD19461046012860
:102F700051EB010418BFD4F5001484BF002001F008
:102F8000004170BD0808A0F500114FEA31017047FB
:102F900010B591EA030F48BF83F000433FF5AAAC98
:102FA000841A71EB030C07D212198CF0004C43EB1E
:102FB0000C03001B61EB0C01DFF8A4E14FEA115494
:102FC000A4EB135C1EEA430F18BF9EEA445F00F0B7
:102FD000B08023EA6E03524221EA0451C3EB6E0330
:102FE00038BF5B1EDCF1200E25D322FA0CFE10EB5D
:102FF0000E0043FA0CFE41EB0E01CCF1200E03FA59
:103000000EFE10EB0E0051F10001CCF1200E29D480
:1030100012FA0EF201EB0451BDE8104058BF7047A0
:10302000401C1CBFB2F1004F704700280CBF491C68
:1030300020F00100704712EB020E43EB030218BFB1
:103040004FF0010E4EEA4202ACF1200CDCF11E0EF4
:1030500054D943FA0CFE10EB0E0051F1FF31CCF1C4
:103060001E0ED5D50EF1010E12FA0EFE404141EBB7
:10307000010101EB445C5FEA5C5C10D910EBDE708F
:1030800001EB045138BFBEF1004FBDE8104018BF3E
:10309000704700280CBF491C20F00100704730D257
:1030A0004FEAD42C11F5001124F400641BD0B1FABE
:1030B00081F20B3AA41AA41ED2F12003914030FAF7
:1030C00003F31943904001EBCC71002C01EB045148
:1030D000BDE81040A8BF704701F1C0414FF00000AB
:1030E00001F000417047B0FA80F310FA03F100D10B
:1030F00010BDE41A173C4805C90AE4E701EB045186
:1031000010BD491001EB0451BDE810404FEA3000FA
:1031100002E04FF0000170474A0008BF0042F8D0BB
:10312000B2F5001F28BF704701F000414FF00000CA
:1031300070479EEA445F07D011EA5E0FBDE8104079
:1031400004BF002100207047BDE8104070B5FFF7B4
:10315000CBFE00BF40DFF63E83F0004110467047D3
:103160000000E0FF43004FEAD30C4FEA3C0C434021
:103170001FBF40070CF1605113F0FE4F70471CF069
:10318000006F03D100200CF0004170470CF00043A9
:1031900043EA507010B540EACC0000F00EF800BFD2
:1031A000000000924FEA0001FFF7ECBE4FF0004133
:1031B0004FF00000A1F5002170470EF1020E2EF035
:1031C000030E5EF8044B244204D44FEA4102B2F1EC
:1031D0007F4F11D84FEA4003B3F17F4F0CD80ED187
:1031E0004FEAD07CB2F17F4F0CEB4C0C0CF1020C8F
:1031F00008BF4CEBD17C04E04FF0080C01E04FEA33
:10320000D17C0CEB4C0324FA03F404F00704B4F172
:10321000040C06D20EEB840CBDE810404CF0010CFF
:103220006047DFE80CF0070802024FF00040A0F50D
:10323000800010BD0846420018BFD2F1807288BFDE
:1032400000F0004010BD4FF04070E1EE100A7047F2
:10325000FF2141EAD050C0057047FDF7C1BA040014
:103260000008000000000000000200010000100043
:1032700002400000000000A0000000000540000027
:10328000000000C8000000000C4000000000409C4E
:1032900000000000194000000020BCBE000000003B
:1032A00034400000BFC91B8E00000004B540000080
:1032B000504BCFD06607E2CF010000006C41000008
:1032C0003E8251AADFEEA73401000000D94200007F
:1032D000DCB5A0E23A301F97FFFFFFFFB4450000C6
:1032E000FD25A0C8E9A3C14FFFFFFFFFFF3F00007E
:1032F0000000008000000000FF3F00000000008090
:1033000000000000403300080000002028000000FA
:10331000C40100086833000828000020F0060000FF
:10332000E00100081C00000043000000F8FFFFFF60
:103330000C0000000E0000000F0000002E00000036
:10334000000000000000000000010101000000007A
:10335000000000000000000000000000000000006D
:08336000000000000000000065
:040000050800018965
:00000001FF
